:10100000B6EF3EF0003132334634353645373839A5
:0810100044413042432000007E
:107D3500456E7465722050494E206E756D62657290
:107D4500203A20200083887D0E166EAC0EE82EFEAC
:107D5500D7162EFCD783987D0E166EAC0EE82EFE38
:107D6500D7162EFCD712002C6A2B6A350EF66E7DBF
:107D75000EF76E000EF86E00EE01F010EE15F0092C
:107D850000F5CFEEFFE550E150FAE1000EF86E1078
:107D95000EF76E000175EF3FF016501710D8B412AC
:107DA50000000E1A6E000E196E0AD0100E186E9491
:107DB5000EE82EFED7182EFCD700D0194A1A2A161F
:107DC50050195C17501A58D8B01200EFD7050EF6A7
:107DD5006E20EE16F0110E0900F5CFDEFFE806FB6A
:107DE500E281AAFED781500F0B286E81BAFED728F3
:107DF50050010D160EF324D96E000EF420DA6EDF55
:107E0500501200186E839C3F0E176E550EE82EFE1D
:107E1500D7172EFCD700F018C019F019380F0B1919
:107E25006E19500F0B836E7D0E176EAC0EE82EFE8D
:107E3500D7172EFCD7A5EC3EF07D0E176EAC0EE8DD
:107E45002EFED7172EFCD718C019F019500F0B832B
:107E55006E7D0E176EAC0EE82EFED7172EFCD7A53D
:107E6500EC3EF07D0E176EAC0EE82EFED7172EFCFD
:107E7500D71200000E956E000E836E8398839C8347
:107E85009A000E1C6E000E1B6E1CBE06D01C500FF9
:107E9500E1640E1B5CD8B00BD09C0E1A6ED70EE8B1
:107EA5002EFED71A2EFCD700F01B4A1C2AEDD7331D
:107EB5000E04EC3FF0320E04EC3FF0280E04EC3FCC
:107EC500F00E0E04EC3FF0060E04EC3FF0010E043C
:107ED500EC3FF09C0E1A6ED70EE82EFED71A2EFC3C
:107EE500D700F012003CEC3FF0800E04EC3FF000B0
:107EF5000E2A6E000E296E2ABE06D02A5012E114F3
:107F05000E295CD8B00ED0010E2924D96E000E2A98
:107F150020DA6EDF502C6E2C50B6EC3FF0294A2A41
:107F25002AEAD7C00E04EC3FF0000E2A6E000E2997
:107F35006E2ABE06D02A500DE1140E295CD8B00970
:107F4500D0E9EC3EF02B6E2B50B6EC3FF0294A2AD7
:107F55002AEFD7030E176EE80E166ECFEC3EF00132
:107F65000E04EC3FF0C1D7186E838C3F0E176E558B
:107F75000EE82EFED7172EFCD700F018C019F01901
:107F8500380F0B196E19500F0B836E7D0E176EACE3
:107F95000EE82EFED7172EFCD7838C7D0E176EAC00
:107FA5000EE82EFED7172EFCD7A5EC3EF07D0E175A
:107FB5006EAC0EE82EFED7172EFCD718C019F01997
:107FC500500F0B836E7D0E176EAC0EE82EFED71785
:107FD5002EFCD7838C9C0E176ED70EE82EFED71776
:107FE5002EFCD700F0A5EC3EF09C0E176ED70EE8E0
:0C7FF5002EFED7172EFCD700F01200FF64
:020000040020DA
:08000000FFFFFFFFFFFFFFFF00
:020000040030CA
:0E00000000051F1FFF8385FF0FC00FE00F409C
:00000001FF
