:041000000BEF08F0FA
:101008002282FACF08F0FBCF09F04BED0AF0B1EFDE
:101018000CF00031323346343536453738394441DF
:10102800304243200000000E946E68EC0BF0030E73
:10103800176EE80E166E4AEC0CF0000E206E090EC4
:10104800206401D01ED08282000E176E020E166E2A
:101058004AEC0CF08292000E176E120E166E4AECD5
:101068000CF08280000E176E000E166E4AEC0CF023
:101078008290000E176E130E166E4AEC0CF0202AA2
:10108800DED7800EDAEC0BF0000E1F6E000E1E6E1F
:101098001FBE06D01F5010E1040E1E5CD8B00CD045
:1010A800450ED4EC0AF0410ED4EC0AF0530ED4EC01
:1010B8000AF0540ED4EC0AF0030E176EE80E166E02
:1010C8004AEC0CF0000E206E090E206401D01ED0F0
:1010D8008282000E176E010E166E4AEC0CF0829298
:1010E800000E176E120E166E4AEC0CF08280000E7F
:1010F800176E010E166E4AEC0CF08290000E176EF9
:10110800120E166E4AEC0CF0202ADED7800EDAECAE
:101118000BF0000E1F6E000E1E6E1FBE06D01F5075
:1011280010E1040E1E5CD8B00CD04D0ED4EC0AF0C1
:10113800490ED4EC0AF0440ED4EC0AF0440ED4EC78
:101148000AF0030E176EE80E166E4AEC0CF0000E4D
:10115800206E050E206401D01ED08282000E176E0C
:10116800000E166E4AEC0CF08292000E176E130EEB
:10117800166E4AEC0CF08280000E176E020E166E88
:101188004AEC0CF08290000E176E120E166E4AECA6
:101198000CF0202ADED7800EDAEC0BF0000E1F6E62
:1011A800000E1E6E1FBE06D01F5010E1040E1E5CFE
:1011B800D8B00CD0570ED4EC0AF0450ED4EC0AF097
:1011C800530ED4EC0AF0540ED4EC0AF0030E176E4A
:1011D800E80E166E4AEC0CF0000E206E090E206424
:1011E80001D01ED08282000E176E010E166E4AECD8
:1011F8000CF08292000E176E120E166E4AEC0CF06E
:101208008280000E176E010E166E4AEC0CF082906A
:10121800000E176E120E166E4AEC0CF0202ADED75E
:10122800800EDAEC0BF0000E1F6E000E1E6E1FBE55
:1012380006D01F5011E1040E1E5CD8B012004D0EEE
:10124800D4EC0AF0490ED4EC0AF0440ED4EC0AF0BF
:10125800440ED4EC0AF012001200000E946EA1ECB9
:101268000BF0030E026EE80E016E64EC0CF0000E3B
:10127800206E090E206401D01ED08282000E026EFC
:10128800020E016E64EC0CF08292000E026E120ED9
:10129800016E64EC0CF08280000E026E000E016E8E
:1012A80064EC0CF08290000E026E130E016E64EC7A
:1012B8000CF0202ADED7800E12EC0CF0000E1F6E08
:1012C800000E1E6E1FBE06D01F5010E1040E1E5CDD
:1012D800D8B00CD0450E1EEC0BF0410E1EEC0BF0F6
:1012E800530E1EEC0BF0540E1EEC0BF0030E026EA8
:1012F800E80E016E64EC0CF0000E206E090E2064FE
:1013080001D01ED08282000E026E010E016E64ECC6
:101318000CF08292000E026E120E016E64EC0CF05C
:101328008280000E026E010E016E64EC0CF0829059
:10133800000E026E120E016E64EC0CF0202ADED74D
:10134800800E12EC0CF0000E1F6E000E1E6E1FBEFB
:1013580006D01F5010E1040E1E5CD8B00CD04D0E04
:101368001EEC0BF0490E1EEC0BF0440E1EEC0BF0BD
:10137800440E1EEC0BF0030E026EE80E016E64ECD8
:101388000CF0000E206E050E206401D01ED0828263
:10139800000E026E000E016E64EC0CF08292000EDC
:1013A800026E130E016E64EC0CF08280000E026E69
:1013B800020E016E64EC0CF08290000E026E120EAA
:1013C800016E64EC0CF0202ADED7800E12EC0CF0D3
:1013D800000E1F6E000E1E6E1FBE06D01F5010E1BD
:1013E800040E1E5CD8B00CD0570E1EEC0BF0450E48
:1013F8001EEC0BF0530E1EEC0BF0540E1EEC0BF013
:10140800030E026EE80E016E64EC0CF0000E206E06
:10141800090E206401D01ED08282000E026E010ED9
:10142800016E64EC0CF08292000E026E120E016ED8
:1014380064EC0CF08280000E026E010E016E64EC0A
:101448000CF08290000E026E120E016E64EC0CF02D
:10145800202ADED7800E12EC0CF0000E1F6E000E54
:101468001E6E1FBE06D01F5011E1040E1E5CD8B0C0
:1014780012004D0E1EEC0BF0490E1EEC0BF0440E44
:101488001EEC0BF0440E1EEC0BF0120012000600CE
:10149800E9CF0AF0EACF0BF0E1CF0CF0E2CF0DF084
:1014A800D9CF0EF0DACF0FF0F3CF10F0F4CF11F060
:1014B800F6CF12F0F7CF13F0F8CF14F0F5CF15F000
:1014C800F2A250D0212A2104D8A443D0000E206EC5
:1014D800090E206401D01ED08282000E026E010E19
:1014E800016E64EC0CF08292000E026E120E016E18
:1014F80064EC0CF08280000E026E010E016E64EC4A
:101508000CF08290000E026E120E016E64EC0CF06C
:10151800202ADED7800E12EC0CF0000E1F6E000E93
:101528001E6E1FBE06D01F5013E1040E1E5CD8B0FD
:101538000FD0530E1EEC0BF0540E1EEC0BF04F0E9A
:101548001EEC0BF0500E1EEC0BF0210E1EEC0BF0F7
:10155800FFD7020E2118D8A404D031EC09F0000EF0
:10156800216EF29215C0F5FF14C0F8FF13C0F7FF03
:1015780012C0F6FF11C0F4FF10C0F3FF0FC0DAFF6E
:101588000EC0D9FF0DC0E2FF0CC0E1FF0BC0EAFF9F
:101598000AC0E9FF09C0FBFF08C0FAFF2292110048
:1015A800186E838C3F0E176E550EE82EFED7172E39
:1015B800FCD700F018C019F019380F0B196E195024
:1015C8000F0B836E7D0E176EAC0EE82EFED7172E0E
:1015D800FCD7838C7D0E176EAC0EE82EFED7172E27
:1015E800FCD78FEC0CF07D0E176EAC0EE82EFED7F4
:1015F800172EFCD718C019F019500F0B836E7D0EEB
:10160800176EAC0EE82EFED7172EFCD7838C9C0ED7
:10161800176ED70EE82EFED7172EFCD700F08FECEA
:101628000CF09C0E176ED70EE82EFED7172EFCD79F
:1016380000F01200036E838C3F0E026E550EE82EEA
:10164800FED7022EFCD700F003C004F004380F0BBD
:10165800046E04500F0B836E7D0E026EAC0EE82EE6
:10166800FED7022EFCD7838C7D0E026EAC0EE82EC0
:10167800FED7022EFCD7A0EC0CF07D0E026EAC0E4D
:10168800E82EFED7022EFCD703C004F004500F0B3F
:10169800836E7D0E026EAC0EE82EFED7022EFCD7AE
:1016A800838C9C0E026ED70EE82EFED7022EFCD736
:1016B80000F0A0EC0CF09C0E026ED70EE82EFED7C0
:1016C800022EFCD700F01200000E956E000E836EFD
:1016D8008398839C839A000E1C6E000E1B6E1CBEA2
:1016E80006D01C500FE1640E1B5CD8B00BD09C0ECA
:1016F8001A6ED70EE82EFED71A2EFCD700F01B4A1A
:101708001C2AEDD7330EDAEC0BF0320EDAEC0BF0C4
:10171800280EDAEC0BF00E0EDAEC0BF0060EDAEC13
:101728000BF0010EDAEC0BF09C0E1A6ED70EE82EB9
:10173800FED71A2EFCD700F01200000E956E000E90
:10174800836E8398839C839A000E076E000E066E44
:1017580007BE06D007500FE1640E065CD8B00BD068
:101768009C0E056ED70EE82EFED7052EFCD700F08E
:10177800064A072AEDD7330E12EC0CF0320E12ECA3
:101788000CF0280E12EC0CF00E0E12EC0CF0060EFB
:1017980012EC0CF0010E12EC0CF09C0E056ED70E3C
:1017A800E82EFED7052EFCD700F01200186E839C99
:1017B8003F0E176E550EE82EFED7172EFCD700F0F9
:1017C80018C019F019380F0B196E19500F0B836ECA
:1017D8007D0E176EAC0EE82EFED7172EFCD78FECB9
:1017E8000CF07D0E176EAC0EE82EFED7172EFCD728
:1017F80018C019F019500F0B836E7D0E176EAC0EC2
:10180800E82EFED7172EFCD78FEC0CF07D0E176E46
:10181800AC0EE82EFED7172EFCD71200036E839C61
:101828003F0E026E550EE82EFED7022EFCD700F0B2
:1018380003C004F004380F0B046E04500F0B836EC2
:101848007D0E026EAC0EE82EFED7022EFCD7A0EC61
:101858000CF07D0E026EAC0EE82EFED7022EFCD7E1
:1018680003C004F004500F0B836E7D0E026EAC0EA5
:10187800E82EFED7022EFCD7A0EC0CF07D0E026EEF
:10188800AC0EE82EFED7022EFCD712001650171009
:10189800D8B41200000E1A6E000E196E0AD0100E7F
:1018A800186E940EE82EFED7182EFCD700D0194AD1
:1018B8001A2A1650195C17501A58D8B01200EFD7C8
:1018C80001500210D8B41200000E056E000E046E0E
:1018D8000AD0100E036E940EE82EFED7032EFCD706
:1018E80000D0044A052A0150045C02500558D8B0BB
:1018F8001200EFD7000E1D6E0F0EC16E070EB46EEC
:101908009380070E936EF28EF28CD08EF288F2924C
:1019180017EC08F0FDD783887D0E166EAC0EE82E06
:10192800FED7162EFCD783987D0E166EAC0EE82EC9
:10193800FED7162EFCD7120083887D0E016EAC0EE2
:10194800E82EFED7012EFCD783987D0E016EAC0ED3
:10195800E82EFED7012EFCD71200216A206A1F6AE2
:101968001E6A22902292000EF86E100EF76E000189
:041978007EEF0CF002
:020000040020DA
:08000000FFFFFFFFFFFFFFFF00
:020000040030CA
:0E00000000051F1FFF8385FF0FC00FE00F409C
:00000001FF
